:020000020000FC
:040000000C942E002E
:04001C000C946200DE
:100058000C9472000FEF0CB908B900E00093010A84
:1000680001E000930A0A01E40093260A00E00093E5
:10007800270A0DE00093000A00E000930028C1E081
:10008800D8E200E0088309830A830B837894A7D019
:1000980000E20093A00004E00093930405E40093B9
:1000A80002060BE00093060601E0009300060093A9
:1000B8000A0601E0009308060000FECF0F931F9385
:1000C8002F930FB70F93F89450D001E000930B0AC9
:1000D8000F910FBF2F911F910F911895EF92FF92DB
:1000E8000F931F932F933F934F935F936F937F9338
:1000F8008F930FB70F93F894009110061091110683
:1001080024EC39E09CD088944695379546953795E8
:1001180004EF11E0301B410B032F142F6ED0E1E0E8
:10012800F8E2262F2F7049D02083262F207F229592
:1001380044D02F772183272F2F703FD02283272F5A
:10014800207F22953AD0238301E0009308060F917F
:100158000FBF8F917F916F915F914F913F912F9139
:100168001F910F91FF90EF901895C1E0D8E2109180
:100178000028103031F0113049F0123061F013309E
:1001880079F00FEE28812DB909B911C00FED298139
:100198002DB909B90CC00FEB2A812DB909B907C0CF
:1001A8000FE72B812DB909B902C010E003C01395E0
:1001B8001430D9F31093002808952F70F1E0E6ED7C
:1001C80000E0E20FF01F2491E1E0F8E2089581CF0A
:1001D8009286CCA4A08F808C88E0B1C2B0B83FE9E9
:1001E8000FE305D03A95E1F70FEF09B908951EE638
:1001F8001A95F1F70A95D9F7089530E02AE00CD05E
:100208006E2D0AD0E2946E2907D07E2D05D0E29497
:100218007E2902D08E2D0895EE24FF1841E1001F9B
:10022800111F4A9509F40895EE1CFF1CE21AF30AFF
:1002380020F4E20EF31E8894F2CF0894F0CF5527ED
:10024800442760E13695279510F4400F511F5795C4
:0C0258004795379527956A95B9F70895EA
:00000001FF
